{
  "abi": [
    {
      "inputs": [],
      "stateMutability": "nonpayable",
      "type": "constructor"
    },
    {
      "stateMutability": "payable",
      "type": "fallback"
    },
    {
      "inputs": [
        {
          "internalType": "address",
          "name": "funder",
          "type": "address"
        }
      ],
      "name": "addresstoamoundFuded",
      "outputs": [
        {
          "internalType": "uint256",
          "name": "amountFunded",
          "type": "uint256"
        }
      ],
      "stateMutability": "view",
      "type": "function"
    },
    {
      "inputs": [],
      "name": "fund",
      "outputs": [],
      "stateMutability": "payable",
      "type": "function"
    },
    {
      "inputs": [],
      "name": "minDonation",
      "outputs": [
        {
          "internalType": "uint256",
          "name": "",
          "type": "uint256"
        }
      ],
      "stateMutability": "view",
      "type": "function"
    },
    {
      "inputs": [],
      "name": "owner",
      "outputs": [
        {
          "internalType": "address",
          "name": "",
          "type": "address"
        }
      ],
      "stateMutability": "view",
      "type": "function"
    },
    {
      "inputs": [],
      "name": "withdraw",
      "outputs": [],
      "stateMutability": "nonpayable",
      "type": "function"
    },
    {
      "stateMutability": "payable",
      "type": "receive"
    }
  ],
  "bytecode": {
    "object": "0x60a060405234801561001057600080fd5b50336080526080516106156100366000396000818160b401526101f701526106156000f3fe60806040526004361061004e5760003560e01c80631c0e0225146100655780633ccfd60b1461008d5780638da5cb5b146100a2578063a7786ad9146100ee578063b60d42881461005d5761005d565b3661005d5761005b61011b565b005b61005b61011b565b34801561007157600080fd5b5061007a600581565b6040519081526020015b60405180910390f35b34801561009957600080fd5b5061005b6101ec565b3480156100ae57600080fd5b506100d67f000000000000000000000000000000000000000000000000000000000000000081565b6040516001600160a01b039091168152602001610084565b3480156100fa57600080fd5b5061007a610109366004610498565b60016020526000908152604090205481565b61012e6005670de0b6b3a76400006104de565b61013734610355565b101561018a5760405162461bcd60e51b815260206004820152601860248201527f746865206d65737361676520776173207265766572746564000000000000000060448201526064015b60405180910390fd5b60008054600181810183557f290decd9548b62a8d60345a988386fc84ba6bc95484008f6362f93160ef3e56390910180546001600160a01b0319163390811790915582526020526040812080543492906101e59084906104f5565b9091555050565b336001600160a01b037f000000000000000000000000000000000000000000000000000000000000000016146102545760405162461bcd60e51b815260206004820152600d60248201526c26bab9ba1031329037bbb732b960991b6044820152606401610181565b60005b6000548110156102a65760006001600080848154811061027957610279610508565b60009182526020808320909101546001600160a01b03168352820192909252604001902055600101610257565b50604080516000808252602082019283905290516102c4929061041e565b50604051600090339047908381818185875af1925050503d8060008114610307576040519150601f19603f3d011682016040523d82523d6000602084013e61030c565b606091505b50509050806103525760405162461bcd60e51b81526020600482015260126024820152711cdd58d8d95cdcd8d85b1b0819985a5b195960721b6044820152606401610181565b50565b6000670de0b6b3a7640000610368610382565b61037290846104de565b61037c919061051e565b92915050565b60008073694aa1769357215de4fac081bf1f309adc32530690506000816001600160a01b031663feaf968c6040518163ffffffff1660e01b815260040160a060405180830381865afa1580156103dc573d6000803e3d6000fd5b505050506040513d601f19601f82011682018060405250810190610400919061055f565b505050915050806402540be40061041791906105af565b9250505090565b828054828255906000526020600020908101928215610473579160200282015b8281111561047357825182546001600160a01b0319166001600160a01b0390911617825560209092019160019091019061043e565b5061047f929150610483565b5090565b5b8082111561047f5760008155600101610484565b6000602082840312156104aa57600080fd5b81356001600160a01b03811681146104c157600080fd5b9392505050565b634e487b7160e01b600052601160045260246000fd5b808202811582820484141761037c5761037c6104c8565b8082018082111561037c5761037c6104c8565b634e487b7160e01b600052603260045260246000fd5b60008261053b57634e487b7160e01b600052601260045260246000fd5b500490565b805169ffffffffffffffffffff8116811461055a57600080fd5b919050565b600080600080600060a0868803121561057757600080fd5b61058086610540565b94506020860151935060408601519250606086015191506105a360808701610540565b90509295509295909350565b80820260008212600160ff1b841416156105cb576105cb6104c8565b818105831482151761037c5761037c6104c856fea2646970667358221220c784a50c15eb1884a753ea71372571ef1849c74764550d0990ffa5b8488f1af164736f6c63430008160033",
    "linkReferences": {}
  },
  "methodIdentifiers": {
    "addresstoamoundFuded(address)": "a7786ad9",
    "fund()": "b60d4288",
    "minDonation()": "1c0e0225",
    "owner()": "8da5cb5b",
    "withdraw()": "3ccfd60b"
  },
  "id": 21
}