{
  "abi": [
    {
      "inputs": [
        {
          "internalType": "address",
          "name": "priceFeed",
          "type": "address"
        }
      ],
      "stateMutability": "nonpayable",
      "type": "constructor"
    },
    {
      "stateMutability": "payable",
      "type": "fallback"
    },
    {
      "inputs": [
        {
          "internalType": "address",
          "name": "funder",
          "type": "address"
        }
      ],
      "name": "addresstoamoundFuded",
      "outputs": [
        {
          "internalType": "uint256",
          "name": "amountFunded",
          "type": "uint256"
        }
      ],
      "stateMutability": "view",
      "type": "function"
    },
    {
      "inputs": [],
      "name": "fund",
      "outputs": [],
      "stateMutability": "payable",
      "type": "function"
    },
    {
      "inputs": [],
      "name": "getVersion",
      "outputs": [
        {
          "internalType": "uint256",
          "name": "",
          "type": "uint256"
        }
      ],
      "stateMutability": "view",
      "type": "function"
    },
    {
      "inputs": [],
      "name": "minDonation",
      "outputs": [
        {
          "internalType": "uint256",
          "name": "",
          "type": "uint256"
        }
      ],
      "stateMutability": "view",
      "type": "function"
    },
    {
      "inputs": [],
      "name": "owner",
      "outputs": [
        {
          "internalType": "address",
          "name": "",
          "type": "address"
        }
      ],
      "stateMutability": "view",
      "type": "function"
    },
    {
      "inputs": [],
      "name": "withdraw",
      "outputs": [],
      "stateMutability": "nonpayable",
      "type": "function"
    },
    {
      "stateMutability": "payable",
      "type": "receive"
    }
  ],
  "bytecode": {
    "object": "0x60a060405234801561001057600080fd5b5060405161076938038061076983398101604081905261002f91610058565b33608052600080546001600160a01b0319166001600160a01b0392909216919091179055610088565b60006020828403121561006a57600080fd5b81516001600160a01b038116811461008157600080fd5b9392505050565b6080516106c06100a96000396000818160d401526102a401526106c06000f3fe6080604052600436106100595760003560e01c80630d8e6e2c146100705780631c0e0225146100985780633ccfd60b146100ad5780638da5cb5b146100c2578063a7786ad91461010e578063b60d42881461006857610068565b366100685761006661013b565b005b61006661013b565b34801561007c57600080fd5b5061008561021c565b6040519081526020015b60405180910390f35b3480156100a457600080fd5b50610085600581565b3480156100b957600080fd5b50610066610299565b3480156100ce57600080fd5b506100f67f000000000000000000000000000000000000000000000000000000000000000081565b6040516001600160a01b03909116815260200161008f565b34801561011a57600080fd5b50610085610129366004610531565b60026020526000908152604090205481565b61014e6005670de0b6b3a7640000610570565b6000546101659034906001600160a01b0316610403565b10156101b85760405162461bcd60e51b815260206004820152601860248201527f746865206d65737361676520776173207265766572746564000000000000000060448201526064015b60405180910390fd5b600180548082019091557fb10e2d527612073b26eecdfd717e6a320cf44b4afac2b0732d9fcbe2b7fa0cf60180546001600160a01b0319163390811790915560009081526002602052604081208054349290610215908490610587565b9091555050565b60008060009054906101000a90046001600160a01b03166001600160a01b03166354fd4d506040518163ffffffff1660e01b8152600401602060405180830381865afa158015610270573d6000803e3d6000fd5b505050506040513d601f19601f82011682018060405250810190610294919061059a565b905090565b336001600160a01b037f000000000000000000000000000000000000000000000000000000000000000016146103015760405162461bcd60e51b815260206004820152600d60248201526c26bab9ba1031329037bbb732b960991b60448201526064016101af565b60005b6001548110156103545760006002600060018481548110610327576103276105b3565b60009182526020808320909101546001600160a01b03168352820192909252604001902055600101610304565b506040805160008152602081019182905251610372916001916104b7565b50604051600090339047908381818185875af1925050503d80600081146103b5576040519150601f19603f3d011682016040523d82523d6000602084013e6103ba565b606091505b50509050806104005760405162461bcd60e51b81526020600482015260126024820152711cdd58d8d95cdcd8d85b1b0819985a5b195960721b60448201526064016101af565b50565b6000670de0b6b3a764000061041783610434565b6104219085610570565b61042b91906105c9565b90505b92915050565b600080826001600160a01b031663feaf968c6040518163ffffffff1660e01b815260040160a060405180830381865afa158015610475573d6000803e3d6000fd5b505050506040513d601f19601f82011682018060405250810190610499919061060a565b505050915050806402540be4006104b0919061065a565b9392505050565b82805482825590600052602060002090810192821561050c579160200282015b8281111561050c57825182546001600160a01b0319166001600160a01b039091161782556020909201916001909101906104d7565b5061051892915061051c565b5090565b5b80821115610518576000815560010161051d565b60006020828403121561054357600080fd5b81356001600160a01b03811681146104b057600080fd5b634e487b7160e01b600052601160045260246000fd5b808202811582820484141761042e5761042e61055a565b8082018082111561042e5761042e61055a565b6000602082840312156105ac57600080fd5b5051919050565b634e487b7160e01b600052603260045260246000fd5b6000826105e657634e487b7160e01b600052601260045260246000fd5b500490565b805169ffffffffffffffffffff8116811461060557600080fd5b919050565b600080600080600060a0868803121561062257600080fd5b61062b866105eb565b945060208601519350604086015192506060860151915061064e608087016105eb565b90509295509295909350565b80820260008212600160ff1b841416156106765761067661055a565b818105831482151761042e5761042e61055a56fea26469706673582212204ac4cbc15cc2ec35b76c22ce50772203c641bb698bacdaf704a1269d5e01714c64736f6c63430008160033",
    "linkReferences": {}
  },
  "methodIdentifiers": {
    "addresstoamoundFuded(address)": "a7786ad9",
    "fund()": "b60d4288",
    "getVersion()": "0d8e6e2c",
    "minDonation()": "1c0e0225",
    "owner()": "8da5cb5b",
    "withdraw()": "3ccfd60b"
  },
  "id": 21
}