{
  "abi": [
    {
      "inputs": [
        {
          "internalType": "address",
          "name": "priceFeed",
          "type": "address"
        }
      ],
      "stateMutability": "nonpayable",
      "type": "constructor"
    },
    {
      "stateMutability": "payable",
      "type": "fallback"
    },
    {
      "inputs": [],
      "name": "fund",
      "outputs": [],
      "stateMutability": "payable",
      "type": "function"
    },
    {
      "inputs": [
        {
          "internalType": "address",
          "name": "fundersAddress",
          "type": "address"
        }
      ],
      "name": "getAddressToAmount",
      "outputs": [
        {
          "internalType": "uint256",
          "name": "",
          "type": "uint256"
        }
      ],
      "stateMutability": "view",
      "type": "function"
    },
    {
      "inputs": [
        {
          "internalType": "uint256",
          "name": "index",
          "type": "uint256"
        }
      ],
      "name": "getFunder",
      "outputs": [
        {
          "internalType": "address",
          "name": "",
          "type": "address"
        }
      ],
      "stateMutability": "view",
      "type": "function"
    },
    {
      "inputs": [],
      "name": "getVersion",
      "outputs": [
        {
          "internalType": "uint256",
          "name": "",
          "type": "uint256"
        }
      ],
      "stateMutability": "view",
      "type": "function"
    },
    {
      "inputs": [],
      "name": "minDonation",
      "outputs": [
        {
          "internalType": "uint256",
          "name": "",
          "type": "uint256"
        }
      ],
      "stateMutability": "view",
      "type": "function"
    },
    {
      "inputs": [],
      "name": "owner",
      "outputs": [
        {
          "internalType": "address",
          "name": "",
          "type": "address"
        }
      ],
      "stateMutability": "view",
      "type": "function"
    },
    {
      "inputs": [],
      "name": "withdraw",
      "outputs": [],
      "stateMutability": "nonpayable",
      "type": "function"
    },
    {
      "stateMutability": "payable",
      "type": "receive"
    }
  ],
  "bytecode": {
    "object": "0x60a060405234801561001057600080fd5b506040516107f63803806107f683398101604081905261002f91610058565b33608052600080546001600160a01b0319166001600160a01b0392909216919091179055610088565b60006020828403121561006a57600080fd5b81516001600160a01b038116811461008157600080fd5b9392505050565b60805161074d6100a96000396000818160ef01526102e8015261074d6000f3fe6080604052600436106100745760003560e01c80638da5cb5b1161004e5780638da5cb5b146100dd578063b60d428814610083578063c0f8cffc14610129578063d7b4750c1461015f57610083565b80630d8e6e2c1461008b5780631c0e0225146100b35780633ccfd60b146100c857610083565b366100835761008161017f565b005b61008161017f565b34801561009757600080fd5b506100a0610260565b6040519081526020015b60405180910390f35b3480156100bf57600080fd5b506100a0600581565b3480156100d457600080fd5b506100816102dd565b3480156100e957600080fd5b506101117f000000000000000000000000000000000000000000000000000000000000000081565b6040516001600160a01b0390911681526020016100aa565b34801561013557600080fd5b506100a06101443660046105a5565b6001600160a01b031660009081526002602052604090205490565b34801561016b57600080fd5b5061011161017a3660046105ce565b610447565b6101926005670de0b6b3a76400006105fd565b6000546101a99034906001600160a01b0316610477565b10156101fc5760405162461bcd60e51b815260206004820152601860248201527f746865206d65737361676520776173207265766572746564000000000000000060448201526064015b60405180910390fd5b600180548082019091557fb10e2d527612073b26eecdfd717e6a320cf44b4afac2b0732d9fcbe2b7fa0cf60180546001600160a01b0319163390811790915560009081526002602052604081208054349290610259908490610614565b9091555050565b60008060009054906101000a90046001600160a01b03166001600160a01b03166354fd4d506040518163ffffffff1660e01b8152600401602060405180830381865afa1580156102b4573d6000803e3d6000fd5b505050506040513d601f19601f820116820180604052508101906102d89190610627565b905090565b336001600160a01b037f000000000000000000000000000000000000000000000000000000000000000016146103455760405162461bcd60e51b815260206004820152600d60248201526c26bab9ba1031329037bbb732b960991b60448201526064016101f3565b60005b600154811015610398576000600260006001848154811061036b5761036b610640565b60009182526020808320909101546001600160a01b03168352820192909252604001902055600101610348565b5060408051600081526020810191829052516103b69160019161052b565b50604051600090339047908381818185875af1925050503d80600081146103f9576040519150601f19603f3d011682016040523d82523d6000602084013e6103fe565b606091505b50509050806104445760405162461bcd60e51b81526020600482015260126024820152711cdd58d8d95cdcd8d85b1b0819985a5b195960721b60448201526064016101f3565b50565b60006001828154811061045c5761045c610640565b6000918252602090912001546001600160a01b031692915050565b6000670de0b6b3a764000061048b836104a8565b61049590856105fd565b61049f9190610656565b90505b92915050565b600080826001600160a01b031663feaf968c6040518163ffffffff1660e01b815260040160a060405180830381865afa1580156104e9573d6000803e3d6000fd5b505050506040513d601f19601f8201168201806040525081019061050d9190610697565b505050915050806402540be40061052491906106e7565b9392505050565b828054828255906000526020600020908101928215610580579160200282015b8281111561058057825182546001600160a01b0319166001600160a01b0390911617825560209092019160019091019061054b565b5061058c929150610590565b5090565b5b8082111561058c5760008155600101610591565b6000602082840312156105b757600080fd5b81356001600160a01b038116811461052457600080fd5b6000602082840312156105e057600080fd5b5035919050565b634e487b7160e01b600052601160045260246000fd5b80820281158282048414176104a2576104a26105e7565b808201808211156104a2576104a26105e7565b60006020828403121561063957600080fd5b5051919050565b634e487b7160e01b600052603260045260246000fd5b60008261067357634e487b7160e01b600052601260045260246000fd5b500490565b805169ffffffffffffffffffff8116811461069257600080fd5b919050565b600080600080600060a086880312156106af57600080fd5b6106b886610678565b94506020860151935060408601519250606086015191506106db60808701610678565b90509295509295909350565b80820260008212600160ff1b84141615610703576107036105e7565b81810583148215176104a2576104a26105e756fea2646970667358221220e25de2c8e5a1dff2620efeca861ed21049c01dd83cf03cf60afd5fd5a25d594964736f6c63430008160033",
    "linkReferences": {}
  },
  "methodIdentifiers": {
    "fund()": "b60d4288",
    "getAddressToAmount(address)": "c0f8cffc",
    "getFunder(uint256)": "d7b4750c",
    "getVersion()": "0d8e6e2c",
    "minDonation()": "1c0e0225",
    "owner()": "8da5cb5b",
    "withdraw()": "3ccfd60b"
  },
  "id": 22
}