{
  "abi": [
    {
      "inputs": [
        {
          "internalType": "address",
          "name": "priceFeed",
          "type": "address"
        }
      ],
      "stateMutability": "nonpayable",
      "type": "constructor"
    },
    {
      "stateMutability": "payable",
      "type": "fallback"
    },
    {
      "inputs": [],
      "name": "fund",
      "outputs": [],
      "stateMutability": "payable",
      "type": "function"
    },
    {
      "inputs": [
        {
          "internalType": "address",
          "name": "fundersAddress",
          "type": "address"
        }
      ],
      "name": "getAddressToAmount",
      "outputs": [
        {
          "internalType": "uint256",
          "name": "",
          "type": "uint256"
        }
      ],
      "stateMutability": "view",
      "type": "function"
    },
    {
      "inputs": [
        {
          "internalType": "uint256",
          "name": "index",
          "type": "uint256"
        }
      ],
      "name": "getFunder",
      "outputs": [
        {
          "internalType": "address",
          "name": "",
          "type": "address"
        }
      ],
      "stateMutability": "view",
      "type": "function"
    },
    {
      "inputs": [],
      "name": "getOwner",
      "outputs": [
        {
          "internalType": "address",
          "name": "",
          "type": "address"
        }
      ],
      "stateMutability": "view",
      "type": "function"
    },
    {
      "inputs": [],
      "name": "getVersion",
      "outputs": [
        {
          "internalType": "uint256",
          "name": "",
          "type": "uint256"
        }
      ],
      "stateMutability": "view",
      "type": "function"
    },
    {
      "inputs": [],
      "name": "minDonation",
      "outputs": [
        {
          "internalType": "uint256",
          "name": "",
          "type": "uint256"
        }
      ],
      "stateMutability": "view",
      "type": "function"
    },
    {
      "inputs": [],
      "name": "owner",
      "outputs": [
        {
          "internalType": "address",
          "name": "",
          "type": "address"
        }
      ],
      "stateMutability": "view",
      "type": "function"
    },
    {
      "inputs": [],
      "name": "withdraw",
      "outputs": [],
      "stateMutability": "nonpayable",
      "type": "function"
    },
    {
      "stateMutability": "payable",
      "type": "receive"
    }
  ],
  "bytecode": {
    "object": "0x60a060405234801561001057600080fd5b5060405161083738038061083783398101604081905261002f91610058565b33608052600080546001600160a01b0319166001600160a01b0392909216919091179055610088565b60006020828403121561006a57600080fd5b81516001600160a01b038116811461008157600080fd5b9392505050565b6080516107876100b06000396000818160f701528181610141015261032201526107876000f3fe60806040526004361061007f5760003560e01c80638da5cb5b1161004e5780638da5cb5b1461012f578063b60d42881461008e578063c0f8cffc14610163578063d7b4750c146101995761008e565b80630d8e6e2c146100965780631c0e0225146100be5780633ccfd60b146100d3578063893d20e8146100e85761008e565b3661008e5761008c6101b9565b005b61008c6101b9565b3480156100a257600080fd5b506100ab61029a565b6040519081526020015b60405180910390f35b3480156100ca57600080fd5b506100ab600581565b3480156100df57600080fd5b5061008c610317565b3480156100f457600080fd5b507f00000000000000000000000000000000000000000000000000000000000000005b6040516001600160a01b0390911681526020016100b5565b34801561013b57600080fd5b506101177f000000000000000000000000000000000000000000000000000000000000000081565b34801561016f57600080fd5b506100ab61017e3660046105df565b6001600160a01b031660009081526002602052604090205490565b3480156101a557600080fd5b506101176101b4366004610608565b610481565b6101cc6005670de0b6b3a7640000610637565b6000546101e39034906001600160a01b03166104b1565b10156102365760405162461bcd60e51b815260206004820152601860248201527f746865206d65737361676520776173207265766572746564000000000000000060448201526064015b60405180910390fd5b600180548082019091557fb10e2d527612073b26eecdfd717e6a320cf44b4afac2b0732d9fcbe2b7fa0cf60180546001600160a01b031916339081179091556000908152600260205260408120805434929061029390849061064e565b9091555050565b60008060009054906101000a90046001600160a01b03166001600160a01b03166354fd4d506040518163ffffffff1660e01b8152600401602060405180830381865afa1580156102ee573d6000803e3d6000fd5b505050506040513d601f19601f820116820180604052508101906103129190610661565b905090565b336001600160a01b037f0000000000000000000000000000000000000000000000000000000000000000161461037f5760405162461bcd60e51b815260206004820152600d60248201526c26bab9ba1031329037bbb732b960991b604482015260640161022d565b60005b6001548110156103d257600060026000600184815481106103a5576103a561067a565b60009182526020808320909101546001600160a01b03168352820192909252604001902055600101610382565b5060408051600081526020810191829052516103f091600191610565565b50604051600090339047908381818185875af1925050503d8060008114610433576040519150601f19603f3d011682016040523d82523d6000602084013e610438565b606091505b505090508061047e5760405162461bcd60e51b81526020600482015260126024820152711cdd58d8d95cdcd8d85b1b0819985a5b195960721b604482015260640161022d565b50565b6000600182815481106104965761049661067a565b6000918252602090912001546001600160a01b031692915050565b6000670de0b6b3a76400006104c5836104e2565b6104cf9085610637565b6104d99190610690565b90505b92915050565b600080826001600160a01b031663feaf968c6040518163ffffffff1660e01b815260040160a060405180830381865afa158015610523573d6000803e3d6000fd5b505050506040513d601f19601f8201168201806040525081019061054791906106d1565b505050915050806402540be40061055e9190610721565b9392505050565b8280548282559060005260206000209081019282156105ba579160200282015b828111156105ba57825182546001600160a01b0319166001600160a01b03909116178255602090920191600190910190610585565b506105c69291506105ca565b5090565b5b808211156105c657600081556001016105cb565b6000602082840312156105f157600080fd5b81356001600160a01b038116811461055e57600080fd5b60006020828403121561061a57600080fd5b5035919050565b634e487b7160e01b600052601160045260246000fd5b80820281158282048414176104dc576104dc610621565b808201808211156104dc576104dc610621565b60006020828403121561067357600080fd5b5051919050565b634e487b7160e01b600052603260045260246000fd5b6000826106ad57634e487b7160e01b600052601260045260246000fd5b500490565b805169ffffffffffffffffffff811681146106cc57600080fd5b919050565b600080600080600060a086880312156106e957600080fd5b6106f2866106b2565b9450602086015193506040860151925060608601519150610715608087016106b2565b90509295509295909350565b80820260008212600160ff1b8414161561073d5761073d610621565b81810583148215176104dc576104dc61062156fea2646970667358221220e74211aad6931490ea5ad661fd14bf6e34ab92fb719a32631444c9c6bec507a564736f6c63430008160033",
    "linkReferences": {}
  },
  "methodIdentifiers": {
    "fund()": "b60d4288",
    "getAddressToAmount(address)": "c0f8cffc",
    "getFunder(uint256)": "d7b4750c",
    "getOwner()": "893d20e8",
    "getVersion()": "0d8e6e2c",
    "minDonation()": "1c0e0225",
    "owner()": "8da5cb5b",
    "withdraw()": "3ccfd60b"
  },
  "storageLayout": {
    "storage": [
      {
        "astId": 43626,
        "contract": "src/FundMe.sol:FundMe",
        "label": "s_priceFeed",
        "offset": 0,
        "slot": "0",
        "type": "t_contract(AggregatorV3Interface)45"
      },
      {
        "astId": 43629,
        "contract": "src/FundMe.sol:FundMe",
        "label": "s_funder",
        "offset": 0,
        "slot": "1",
        "type": "t_array(t_address)dyn_storage"
      },
      {
        "astId": 43633,
        "contract": "src/FundMe.sol:FundMe",
        "label": "s_addresstoamoundFuded",
        "offset": 0,
        "slot": "2",
        "type": "t_mapping(t_address,t_uint256)"
      }
    ],
    "types": {
      "t_address": {
        "encoding": "inplace",
        "label": "address",
        "numberOfBytes": "20"
      },
      "t_array(t_address)dyn_storage": {
        "encoding": "dynamic_array",
        "label": "address[]",
        "numberOfBytes": "32",
        "base": "t_address"
      },
      "t_contract(AggregatorV3Interface)45": {
        "encoding": "inplace",
        "label": "contract AggregatorV3Interface",
        "numberOfBytes": "20"
      },
      "t_mapping(t_address,t_uint256)": {
        "encoding": "mapping",
        "key": "t_address",
        "label": "mapping(address => uint256)",
        "numberOfBytes": "32",
        "value": "t_uint256"
      },
      "t_uint256": {
        "encoding": "inplace",
        "label": "uint256",
        "numberOfBytes": "32"
      }
    }
  },
  "id": 22
}