{
  "abi": [
    {
      "inputs": [
        {
          "internalType": "uint256",
          "name": "favouriteNumber",
          "type": "uint256"
        },
        {
          "internalType": "string",
          "name": "name",
          "type": "string"
        }
      ],
      "name": "addPerson",
      "outputs": [],
      "stateMutability": "nonpayable",
      "type": "function"
    },
    {
      "inputs": [
        {
          "internalType": "uint256",
          "name": "",
          "type": "uint256"
        }
      ],
      "name": "listofperson",
      "outputs": [
        {
          "internalType": "uint256",
          "name": "favouritenumber",
          "type": "uint256"
        },
        {
          "internalType": "string",
          "name": "name",
          "type": "string"
        }
      ],
      "stateMutability": "view",
      "type": "function"
    },
    {
      "inputs": [],
      "name": "myfavouritenumber",
      "outputs": [
        {
          "internalType": "uint256",
          "name": "",
          "type": "uint256"
        }
      ],
      "stateMutability": "view",
      "type": "function"
    },
    {
      "inputs": [
        {
          "internalType": "string",
          "name": "",
          "type": "string"
        }
      ],
      "name": "nametofavouritenumber",
      "outputs": [
        {
          "internalType": "uint256",
          "name": "",
          "type": "uint256"
        }
      ],
      "stateMutability": "view",
      "type": "function"
    },
    {
      "inputs": [],
      "name": "retrieve",
      "outputs": [
        {
          "internalType": "uint256",
          "name": "",
          "type": "uint256"
        }
      ],
      "stateMutability": "view",
      "type": "function"
    },
    {
      "inputs": [
        {
          "internalType": "uint256",
          "name": "_favouritenumber",
          "type": "uint256"
        }
      ],
      "name": "store",
      "outputs": [],
      "stateMutability": "nonpayable",
      "type": "function"
    }
  ],
  "bytecode": {
    "object": "0x608060405234801561001057600080fd5b50610597806100206000396000f3fe608060405234801561001057600080fd5b50600436106100625760003560e01c80632e64cec1146100675780636057361d1461007e5780638986f6a514610093578063afcd1655146100b4578063bc832d4e146100bd578063d0e2ec29146100d0575b600080fd5b6000545b6040519081526020015b60405180910390f35b61009161008c36600461025c565b600055565b005b6100a66100a136600461025c565b6100fb565b604051610075929190610299565b61006b60005481565b6100916100cb366004610376565b6101b3565b61006b6100de3660046103bd565b805160208183018101805160028252928201919093012091525481565b6001818154811061010b57600080fd5b60009182526020909120600290910201805460018201805491935090610130906103fa565b80601f016020809104026020016040519081016040528092919081815260200182805461015c906103fa565b80156101a95780601f1061017e576101008083540402835291602001916101a9565b820191906000526020600020905b81548152906001019060200180831161018c57829003601f168201915b5050505050905082565b6040805180820190915282815260208101828152600180548082018255600091909152825160029091027fb10e2d527612073b26eecdfd717e6a320cf44b4afac2b0732d9fcbe2b7fa0cf68101918255915190917fb10e2d527612073b26eecdfd717e6a320cf44b4afac2b0732d9fcbe2b7fa0cf701906102349082610485565b505050816002826040516102489190610545565b908152604051908190036020019020555050565b60006020828403121561026e57600080fd5b5035919050565b60005b83811015610290578181015183820152602001610278565b50506000910152565b82815260406020820152600082518060408401526102be816060850160208701610275565b601f01601f1916919091016060019392505050565b634e487b7160e01b600052604160045260246000fd5b600082601f8301126102fa57600080fd5b813567ffffffffffffffff80821115610315576103156102d3565b604051601f8301601f19908116603f0116810190828211818310171561033d5761033d6102d3565b8160405283815286602085880101111561035657600080fd5b836020870160208301376000602085830101528094505050505092915050565b6000806040838503121561038957600080fd5b82359150602083013567ffffffffffffffff8111156103a757600080fd5b6103b3858286016102e9565b9150509250929050565b6000602082840312156103cf57600080fd5b813567ffffffffffffffff8111156103e657600080fd5b6103f2848285016102e9565b949350505050565b600181811c9082168061040e57607f821691505b60208210810361042e57634e487b7160e01b600052602260045260246000fd5b50919050565b601f821115610480576000816000526020600020601f850160051c8101602086101561045d5750805b601f850160051c820191505b8181101561047c57828155600101610469565b5050505b505050565b815167ffffffffffffffff81111561049f5761049f6102d3565b6104b3816104ad84546103fa565b84610434565b602080601f8311600181146104e857600084156104d05750858301515b600019600386901b1c1916600185901b17855561047c565b600085815260208120601f198616915b82811015610517578886015182559484019460019091019084016104f8565b50858210156105355787850151600019600388901b60f8161c191681555b5050505050600190811b01905550565b60008251610557818460208701610275565b919091019291505056fea2646970667358221220d55caf9d554789e45b150258cfb3a686fd2cb13acc5aef616b207169d0ddc90d64736f6c63430008160033",
    "linkReferences": {}
  },
  "methodIdentifiers": {
    "addPerson(uint256,string)": "bc832d4e",
    "listofperson(uint256)": "8986f6a5",
    "myfavouritenumber()": "afcd1655",
    "nametofavouritenumber(string)": "d0e2ec29",
    "retrieve()": "2e64cec1",
    "store(uint256)": "6057361d"
  },
  "id": 0
}